{
  "_format": "hh-sol-artifact-1",
  "contractName": "Flashloan",
  "sourceName": "contracts/FlashLoan.sol",
  "abi": [
    {
      "inputs": [
        {
          "internalType": "address",
          "name": "_addressProvider",
          "type": "address"
        },
        {
          "internalType": "address",
          "name": "_routerSudoSwap",
          "type": "address"
        },
        {
          "internalType": "address",
          "name": "_routerSeaport",
          "type": "address"
        },
        {
          "internalType": "address",
          "name": "_addrWeth",
          "type": "address"
        }
      ],
      "stateMutability": "nonpayable",
      "type": "constructor"
    },
    {
      "anonymous": false,
      "inputs": [
        {
          "indexed": true,
          "internalType": "address",
          "name": "previousOwner",
          "type": "address"
        },
        {
          "indexed": true,
          "internalType": "address",
          "name": "newOwner",
          "type": "address"
        }
      ],
      "name": "OwnershipTransferred",
      "type": "event"
    },
    {
      "anonymous": false,
      "inputs": [
        {
          "indexed": false,
          "internalType": "address",
          "name": "",
          "type": "address"
        },
        {
          "indexed": false,
          "internalType": "uint256",
          "name": "",
          "type": "uint256"
        }
      ],
      "name": "Received",
      "type": "event"
    },
    {
      "inputs": [],
      "name": "ADDRESSES_PROVIDER",
      "outputs": [
        {
          "internalType": "contract IPoolAddressesProvider",
          "name": "",
          "type": "address"
        }
      ],
      "stateMutability": "view",
      "type": "function"
    },
    {
      "inputs": [],
      "name": "POOL",
      "outputs": [
        {
          "internalType": "contract IPool",
          "name": "",
          "type": "address"
        }
      ],
      "stateMutability": "view",
      "type": "function"
    },
    {
      "inputs": [],
      "name": "SEAPORT",
      "outputs": [
        {
          "internalType": "contract SeaportInterface",
          "name": "",
          "type": "address"
        }
      ],
      "stateMutability": "view",
      "type": "function"
    },
    {
      "inputs": [],
      "name": "WETH",
      "outputs": [
        {
          "internalType": "contract IWETH9",
          "name": "",
          "type": "address"
        }
      ],
      "stateMutability": "view",
      "type": "function"
    },
    {
      "inputs": [
        {
          "internalType": "bytes",
          "name": "_params",
          "type": "bytes"
        }
      ],
      "name": "buyErc721Opensea",
      "outputs": [
        {
          "internalType": "bool",
          "name": "",
          "type": "bool"
        }
      ],
      "stateMutability": "payable",
      "type": "function"
    },
    {
      "inputs": [
        {
          "internalType": "address",
          "name": "asset",
          "type": "address"
        },
        {
          "internalType": "uint256",
          "name": "amount",
          "type": "uint256"
        },
        {
          "internalType": "uint256",
          "name": "premium",
          "type": "uint256"
        },
        {
          "internalType": "address",
          "name": "initiator",
          "type": "address"
        },
        {
          "internalType": "bytes",
          "name": "params",
          "type": "bytes"
        }
      ],
      "name": "executeOperation",
      "outputs": [
        {
          "internalType": "bool",
          "name": "",
          "type": "bool"
        }
      ],
      "stateMutability": "nonpayable",
      "type": "function"
    },
    {
      "inputs": [],
      "name": "getBalance",
      "outputs": [
        {
          "internalType": "uint256",
          "name": "",
          "type": "uint256"
        }
      ],
      "stateMutability": "view",
      "type": "function"
    },
    {
      "inputs": [],
      "name": "isOwner",
      "outputs": [
        {
          "internalType": "bool",
          "name": "",
          "type": "bool"
        }
      ],
      "stateMutability": "view",
      "type": "function"
    },
    {
      "inputs": [
        {
          "internalType": "address",
          "name": "",
          "type": "address"
        },
        {
          "internalType": "address",
          "name": "",
          "type": "address"
        },
        {
          "internalType": "uint256",
          "name": "",
          "type": "uint256"
        },
        {
          "internalType": "bytes",
          "name": "",
          "type": "bytes"
        }
      ],
      "name": "onERC721Received",
      "outputs": [
        {
          "internalType": "bytes4",
          "name": "",
          "type": "bytes4"
        }
      ],
      "stateMutability": "pure",
      "type": "function"
    },
    {
      "inputs": [],
      "name": "owner",
      "outputs": [
        {
          "internalType": "address",
          "name": "",
          "type": "address"
        }
      ],
      "stateMutability": "view",
      "type": "function"
    },
    {
      "inputs": [],
      "name": "renounceOwnership",
      "outputs": [],
      "stateMutability": "nonpayable",
      "type": "function"
    },
    {
      "inputs": [
        {
          "internalType": "bytes",
          "name": "_params",
          "type": "bytes"
        }
      ],
      "name": "requestFlashLoan",
      "outputs": [],
      "stateMutability": "nonpayable",
      "type": "function"
    },
    {
      "inputs": [],
      "name": "rugPull",
      "outputs": [],
      "stateMutability": "payable",
      "type": "function"
    },
    {
      "inputs": [
        {
          "internalType": "address",
          "name": "NFTAddress",
          "type": "address"
        },
        {
          "internalType": "uint256",
          "name": "_NFTId",
          "type": "uint256"
        }
      ],
      "name": "rugPullNft",
      "outputs": [],
      "stateMutability": "nonpayable",
      "type": "function"
    },
    {
      "inputs": [
        {
          "internalType": "bytes",
          "name": "_params",
          "type": "bytes"
        },
        {
          "internalType": "address",
          "name": "collection",
          "type": "address"
        }
      ],
      "name": "sellErc721SudoSwap",
      "outputs": [],
      "stateMutability": "nonpayable",
      "type": "function"
    },
    {
      "inputs": [
        {
          "internalType": "uint256",
          "name": "amount",
          "type": "uint256"
        }
      ],
      "name": "startArbitrage",
      "outputs": [],
      "stateMutability": "nonpayable",
      "type": "function"
    },
    {
      "inputs": [
        {
          "internalType": "address",
          "name": "_pair",
          "type": "address"
        },
        {
          "internalType": "uint256",
          "name": "_nftId",
          "type": "uint256"
        }
      ],
      "name": "testBuySpecific",
      "outputs": [],
      "stateMutability": "payable",
      "type": "function"
    },
    {
      "inputs": [
        {
          "internalType": "address",
          "name": "newOwner",
          "type": "address"
        }
      ],
      "name": "transferOwnership",
      "outputs": [],
      "stateMutability": "nonpayable",
      "type": "function"
    },
    {
      "inputs": [
        {
          "internalType": "uint256",
          "name": "amount",
          "type": "uint256"
        }
      ],
      "name": "unwrap",
      "outputs": [],
      "stateMutability": "nonpayable",
      "type": "function"
    },
    {
      "inputs": [],
      "name": "wrap",
      "outputs": [],
      "stateMutability": "payable",
      "type": "function"
    },
    {
      "stateMutability": "payable",
      "type": "receive"
    }
  ],
  "bytecode": "0x60e06040523480156200001157600080fd5b50604051620035a9380380620035a9833981810160405281019062000037919062000347565b828282808383898073ffffffffffffffffffffffffffffffffffffffff1660808173ffffffffffffffffffffffffffffffffffffffff16815250508073ffffffffffffffffffffffffffffffffffffffff1663026b1d5f6040518163ffffffff1660e01b8152600401602060405180830381865afa158015620000be573d6000803e3d6000fd5b505050506040513d601f19601f82011682018060405250810190620000e49190620003b9565b73ffffffffffffffffffffffffffffffffffffffff1660a08173ffffffffffffffffffffffffffffffffffffffff16815250505080600160006101000a81548173ffffffffffffffffffffffffffffffffffffffff021916908373ffffffffffffffffffffffffffffffffffffffff1602179055505080600260006101000a81548173ffffffffffffffffffffffffffffffffffffffff021916908373ffffffffffffffffffffffffffffffffffffffff1602179055508073ffffffffffffffffffffffffffffffffffffffff1660c08173ffffffffffffffffffffffffffffffffffffffff16815250505033600360006101000a81548173ffffffffffffffffffffffffffffffffffffffff021916908373ffffffffffffffffffffffffffffffffffffffff160217905550600360009054906101000a900473ffffffffffffffffffffffffffffffffffffffff1673ffffffffffffffffffffffffffffffffffffffff16600073ffffffffffffffffffffffffffffffffffffffff167f8be0079c531659141344cd1fd0a4f28419497f9722a3daafe3b4186f6b6457e060405160405180910390a380600460006101000a81548173ffffffffffffffffffffffffffffffffffffffff021916908373ffffffffffffffffffffffffffffffffffffffff1602179055505050505050505050620003eb565b600080fd5b600073ffffffffffffffffffffffffffffffffffffffff82169050919050565b60006200030f82620002e2565b9050919050565b620003218162000302565b81146200032d57600080fd5b50565b600081519050620003418162000316565b92915050565b60008060008060808587031215620003645762000363620002dd565b5b6000620003748782880162000330565b9450506020620003878782880162000330565b93505060406200039a8782880162000330565b9250506060620003ad8782880162000330565b91505092959194509250565b600060208284031215620003d257620003d1620002dd565b5b6000620003e28482850162000330565b91505092915050565b60805160a05160c0516131796200043060003960008181610b6b01526111fc0152600081816106e1015281816109860152610e4c0152600061047e01526131796000f3fe6080604052600436106101235760003560e01c80637535d246116100a0578063ad5c464811610064578063ad5c4648146103cc578063d02ac05a146103f7578063d46eb11914610420578063de0e9a3e1461042a578063f2fde38b1461045357610163565b80637535d246146102ff5780637e3681331461032a5780638da5cb5b1461035a5780638f32d59b14610385578063a9df6685146103b057610163565b80632c19497a116100e75780632c19497a14610242578063315cd30e1461026b57806332fe349814610294578063387b6629146102bd578063715018a6146102e857610163565b80630542975c1461016857806312065fe014610193578063150b7a02146101be5780631b11d0ff146101fb5780632190dfd01461023857610163565b36610163577f88a5966d370b9919b20f3e2c13ff65706f196a4e32cc2c12bf57088f885258743334604051610159929190611827565b60405180910390a1005b600080fd5b34801561017457600080fd5b5061017d61047c565b60405161018a91906118af565b60405180910390f35b34801561019f57600080fd5b506101a86104a0565b6040516101b591906118ca565b60405180910390f35b3480156101ca57600080fd5b506101e560048036038101906101e091906119b6565b610543565b6040516101f29190611a79565b60405180910390f35b34801561020757600080fd5b50610222600480360381019061021d9190611a94565b610558565b60405161022f9190611b49565b60405180910390f35b610240610771565b005b34801561024e57600080fd5b5061026960048036038101906102649190611b64565b61095f565b005b34801561027757600080fd5b50610292600480360381019061028d9190611cf2565b610a48565b005b3480156102a057600080fd5b506102bb60048036038101906102b69190611d4e565b610c01565b005b3480156102c957600080fd5b506102d2610d1c565b6040516102df9190611d9c565b60405180910390f35b3480156102f457600080fd5b506102fd610d42565b005b34801561030b57600080fd5b50610314610e4a565b6040516103219190611dd8565b60405180910390f35b610344600480360381019061033f9190611df3565b610e6e565b6040516103519190611b49565b60405180910390f35b34801561036657600080fd5b5061036f611061565b60405161037c9190611e3c565b60405180910390f35b34801561039157600080fd5b5061039a61108b565b6040516103a79190611b49565b60405180910390f35b6103ca60048036038101906103c59190611e57565b6110e3565b005b3480156103d857600080fd5b506103e1611293565b6040516103ee9190611eb8565b60405180910390f35b34801561040357600080fd5b5061041e60048036038101906104199190611e57565b6112b9565b005b610428611379565b005b34801561043657600080fd5b50610451600480360381019061044c9190611d4e565b6113fe565b005b34801561045f57600080fd5b5061047a60048036038101906104759190611ed3565b61148e565b005b7f000000000000000000000000000000000000000000000000000000000000000081565b6000600460009054906101000a900473ffffffffffffffffffffffffffffffffffffffff1673ffffffffffffffffffffffffffffffffffffffff166370a08231306040518263ffffffff1660e01b81526004016104fd9190611e3c565b602060405180830381865afa15801561051a573d6000803e3d6000fd5b505050506040513d601f19601f8201168201806040525081019061053e9190611f15565b905090565b600063150b7a0260e01b905095945050505050565b60003073ffffffffffffffffffffffffffffffffffffffff1663de0e9a3e876040518263ffffffff1660e01b815260040161059391906118ca565b600060405180830381600087803b1580156105ad57600080fd5b505af11580156105c1573d6000803e3d6000fd5b505050503073ffffffffffffffffffffffffffffffffffffffff166332fe3498876040518263ffffffff1660e01b81526004016105fe91906118ca565b600060405180830381600087803b15801561061857600080fd5b505af115801561062c573d6000803e3d6000fd5b505050503073ffffffffffffffffffffffffffffffffffffffff1663d46eb119876040518263ffffffff1660e01b81526004016000604051808303818588803b15801561067857600080fd5b505af115801561068c573d6000803e3d6000fd5b50505050506000858761069f9190611f71565b9050600460009054906101000a900473ffffffffffffffffffffffffffffffffffffffff1673ffffffffffffffffffffffffffffffffffffffff1663095ea7b37f0000000000000000000000000000000000000000000000000000000000000000836040518363ffffffff1660e01b815260040161071e929190611827565b6020604051808303816000875af115801561073d573d6000803e3d6000fd5b505050506040513d601f19601f820116820180604052508101906107619190611ff3565b5060019150509695505050505050565b61077961108b565b6107b8576040517f08c379a00000000000000000000000000000000000000000000000000000000081526004016107af9061207d565b60405180910390fd5b3373ffffffffffffffffffffffffffffffffffffffff16476040516107dc906120ce565b60006040518083038185875af1925050503d8060008114610819576040519150601f19603f3d011682016040523d82523d6000602084013e61081e565b606091505b505050600460009054906101000a900473ffffffffffffffffffffffffffffffffffffffff1673ffffffffffffffffffffffffffffffffffffffff1663a9059cbb33600460009054906101000a900473ffffffffffffffffffffffffffffffffffffffff1673ffffffffffffffffffffffffffffffffffffffff166370a08231306040518263ffffffff1660e01b81526004016108bb9190611e3c565b602060405180830381865afa1580156108d8573d6000803e3d6000fd5b505050506040513d601f19601f820116820180604052508101906108fc9190611f15565b6040518363ffffffff1660e01b8152600401610919929190611827565b6020604051808303816000875af1158015610938573d6000803e3d6000fd5b505050506040513d601f19601f8201168201806040525081019061095c9190611ff3565b50565b60003090506000604051806020016040528060008152509050600061098485856114e1565b7f000000000000000000000000000000000000000000000000000000000000000073ffffffffffffffffffffffffffffffffffffffff166342b0b77c84600560000160009054906101000a900473ffffffffffffffffffffffffffffffffffffffff1660056001015486866040518663ffffffff1660e01b8152600401610a0f959493929190612188565b600060405180830381600087803b158015610a2957600080fd5b505af1158015610a3d573d6000803e3d6000fd5b505050505050505050565b8073ffffffffffffffffffffffffffffffffffffffff1663a22cb465600260009054906101000a900473ffffffffffffffffffffffffffffffffffffffff1660016040518363ffffffff1660e01b8152600401610aa69291906121e2565b600060405180830381600087803b158015610ac057600080fd5b505af1158015610ad4573d6000803e3d6000fd5b50505050600082806020019051810190610aee9190612359565b90506000600167ffffffffffffffff811115610b0d57610b0c611bc7565b5b604051908082528060200260200182016040528015610b4657816020015b610b336116fa565b815260200190600190039081610b2b5790505b5090508181600081518110610b5e57610b5d6123a2565b5b60200260200101819052507f000000000000000000000000000000000000000000000000000000000000000073ffffffffffffffffffffffffffffffffffffffff1663dabf67d782600030426040518563ffffffff1660e01b8152600401610bc994939291906125f9565b600060405180830381600087803b158015610be357600080fd5b505af1158015610bf7573d6000803e3d6000fd5b5050505050505050565b3073ffffffffffffffffffffffffffffffffffffffff16637e3681338260056003016040518363ffffffff1660e01b8152600401610c3f919061273a565b60206040518083038185885af1158015610c5d573d6000803e3d6000fd5b50505050506040513d601f19601f82011682018060405250810190610c829190611ff3565b503073ffffffffffffffffffffffffffffffffffffffff1663315cd30e6005600401600560020160009054906101000a900473ffffffffffffffffffffffffffffffffffffffff166040518363ffffffff1660e01b8152600401610ce792919061275c565b600060405180830381600087803b158015610d0157600080fd5b505af1158015610d15573d6000803e3d6000fd5b5050505050565b600160009054906101000a900473ffffffffffffffffffffffffffffffffffffffff1681565b610d4a61108b565b610d89576040517f08c379a0000000000000000000000000000000000000000000000000000000008152600401610d809061207d565b60405180910390fd5b600073ffffffffffffffffffffffffffffffffffffffff16600360009054906101000a900473ffffffffffffffffffffffffffffffffffffffff1673ffffffffffffffffffffffffffffffffffffffff167f8be0079c531659141344cd1fd0a4f28419497f9722a3daafe3b4186f6b6457e060405160405180910390a36000600360006101000a81548173ffffffffffffffffffffffffffffffffffffffff021916908373ffffffffffffffffffffffffffffffffffffffff160217905550565b7f000000000000000000000000000000000000000000000000000000000000000081565b60008082806020019051810190610e859190612b61565b90506000604051806102400160405280836000015173ffffffffffffffffffffffffffffffffffffffff1681526020018360200151815260200183604001518152602001836060015173ffffffffffffffffffffffffffffffffffffffff168152602001836080015173ffffffffffffffffffffffffffffffffffffffff1681526020018360a0015173ffffffffffffffffffffffffffffffffffffffff1681526020018360c0015181526020018360e00151815260200160006017811115610f5157610f50612baa565b5b81526020018361012001518152602001836101400151815260200183610160015181526020018361018001518152602001836101a001518152602001836101c001518152602001836101e00151815260200183610200015181526020018361022001518152509050600160009054906101000a900473ffffffffffffffffffffffffffffffffffffffff1673ffffffffffffffffffffffffffffffffffffffff1663fb0f3ee134836040518363ffffffff1660e01b81526004016110159190612ef0565b60206040518083038185885af1158015611033573d6000803e3d6000fd5b50505050506040513d601f19601f820116820180604052508101906110589190611ff3565b92505050919050565b6000600360009054906101000a900473ffffffffffffffffffffffffffffffffffffffff16905090565b6000600360009054906101000a900473ffffffffffffffffffffffffffffffffffffffff1673ffffffffffffffffffffffffffffffffffffffff163373ffffffffffffffffffffffffffffffffffffffff1614905090565b6000600167ffffffffffffffff811115611100576110ff611bc7565b5b60405190808252806020026020018201604052801561112e5781602001602082028036833780820191505090505b5090508181600081518110611146576111456123a2565b5b602002602001018181525050600060405180604001604052808573ffffffffffffffffffffffffffffffffffffffff1681526020018381525090506000600167ffffffffffffffff81111561119e5761119d611bc7565b5b6040519080825280602002602001820160405280156111d757816020015b6111c46116fa565b8152602001906001900390816111bc5790505b50905081816000815181106111ef576111ee6123a2565b5b60200260200101819052507f000000000000000000000000000000000000000000000000000000000000000073ffffffffffffffffffffffffffffffffffffffff16631113200034833333426040518663ffffffff1660e01b815260040161125a9493929190612f21565b6000604051808303818588803b15801561127357600080fd5b505af1158015611287573d6000803e3d6000fd5b50505050505050505050565b600460009054906101000a900473ffffffffffffffffffffffffffffffffffffffff1681565b6112c161108b565b611300576040517f08c379a00000000000000000000000000000000000000000000000000000000081526004016112f79061207d565b60405180910390fd5b60008290508073ffffffffffffffffffffffffffffffffffffffff166323b872dd3033856040518463ffffffff1660e01b815260040161134293929190612f6d565b600060405180830381600087803b15801561135c57600080fd5b505af1158015611370573d6000803e3d6000fd5b50505050505050565b600460009054906101000a900473ffffffffffffffffffffffffffffffffffffffff1673ffffffffffffffffffffffffffffffffffffffff1663d0e30db0346040518263ffffffff1660e01b81526004016000604051808303818588803b1580156113e357600080fd5b505af11580156113f7573d6000803e3d6000fd5b5050505050565b600460009054906101000a900473ffffffffffffffffffffffffffffffffffffffff1673ffffffffffffffffffffffffffffffffffffffff16632e1a7d4d826040518263ffffffff1660e01b815260040161145991906118ca565b600060405180830381600087803b15801561147357600080fd5b505af1158015611487573d6000803e3d6000fd5b5050505050565b61149661108b565b6114d5576040517f08c379a00000000000000000000000000000000000000000000000000000000081526004016114cc9061207d565b60405180910390fd5b6114de816115cb565b50565b81818101906114f09190613068565b600560008201518160000160006101000a81548173ffffffffffffffffffffffffffffffffffffffff021916908373ffffffffffffffffffffffffffffffffffffffff1602179055506020820151816001015560408201518160020160006101000a81548173ffffffffffffffffffffffffffffffffffffffff021916908373ffffffffffffffffffffffffffffffffffffffff16021790555060608201518160030190805190602001906115a692919061172a565b5060808201518160040190805190602001906115c392919061172a565b509050505050565b600073ffffffffffffffffffffffffffffffffffffffff168173ffffffffffffffffffffffffffffffffffffffff160361163a576040517f08c379a000000000000000000000000000000000000000000000000000000000815260040161163190613123565b60405180910390fd5b8073ffffffffffffffffffffffffffffffffffffffff16600360009054906101000a900473ffffffffffffffffffffffffffffffffffffffff1673ffffffffffffffffffffffffffffffffffffffff167f8be0079c531659141344cd1fd0a4f28419497f9722a3daafe3b4186f6b6457e060405160405180910390a380600360006101000a81548173ffffffffffffffffffffffffffffffffffffffff021916908373ffffffffffffffffffffffffffffffffffffffff16021790555050565b6040518060400160405280600073ffffffffffffffffffffffffffffffffffffffff168152602001606081525090565b82805461173690612674565b90600052602060002090601f016020900481019282611758576000855561179f565b82601f1061177157805160ff191683800117855561179f565b8280016001018555821561179f579182015b8281111561179e578251825591602001919060010190611783565b5b5090506117ac91906117b0565b5090565b5b808211156117c95760008160009055506001016117b1565b5090565b600073ffffffffffffffffffffffffffffffffffffffff82169050919050565b60006117f8826117cd565b9050919050565b611808816117ed565b82525050565b6000819050919050565b6118218161180e565b82525050565b600060408201905061183c60008301856117ff565b6118496020830184611818565b9392505050565b6000819050919050565b600061187561187061186b846117cd565b611850565b6117cd565b9050919050565b60006118878261185a565b9050919050565b60006118998261187c565b9050919050565b6118a98161188e565b82525050565b60006020820190506118c460008301846118a0565b92915050565b60006020820190506118df6000830184611818565b92915050565b6000604051905090565b600080fd5b600080fd5b611902816117ed565b811461190d57600080fd5b50565b60008135905061191f816118f9565b92915050565b61192e8161180e565b811461193957600080fd5b50565b60008135905061194b81611925565b92915050565b600080fd5b600080fd5b600080fd5b60008083601f84011261197657611975611951565b5b8235905067ffffffffffffffff81111561199357611992611956565b5b6020830191508360018202830111156119af576119ae61195b565b5b9250929050565b6000806000806000608086880312156119d2576119d16118ef565b5b60006119e088828901611910565b95505060206119f188828901611910565b9450506040611a028882890161193c565b935050606086013567ffffffffffffffff811115611a2357611a226118f4565b5b611a2f88828901611960565b92509250509295509295909350565b60007fffffffff0000000000000000000000000000000000000000000000000000000082169050919050565b611a7381611a3e565b82525050565b6000602082019050611a8e6000830184611a6a565b92915050565b60008060008060008060a08789031215611ab157611ab06118ef565b5b6000611abf89828a01611910565b9650506020611ad089828a0161193c565b9550506040611ae189828a0161193c565b9450506060611af289828a01611910565b935050608087013567ffffffffffffffff811115611b1357611b126118f4565b5b611b1f89828a01611960565b92509250509295509295509295565b60008115159050919050565b611b4381611b2e565b82525050565b6000602082019050611b5e6000830184611b3a565b92915050565b60008060208385031215611b7b57611b7a6118ef565b5b600083013567ffffffffffffffff811115611b9957611b986118f4565b5b611ba585828601611960565b92509250509250929050565b600080fd5b6000601f19601f8301169050919050565b7f4e487b7100000000000000000000000000000000000000000000000000000000600052604160045260246000fd5b611bff82611bb6565b810181811067ffffffffffffffff82111715611c1e57611c1d611bc7565b5b80604052505050565b6000611c316118e5565b9050611c3d8282611bf6565b919050565b600067ffffffffffffffff821115611c5d57611c5c611bc7565b5b611c6682611bb6565b9050602081019050919050565b82818337600083830152505050565b6000611c95611c9084611c42565b611c27565b905082815260208101848484011115611cb157611cb0611bb1565b5b611cbc848285611c73565b509392505050565b600082601f830112611cd957611cd8611951565b5b8135611ce9848260208601611c82565b91505092915050565b60008060408385031215611d0957611d086118ef565b5b600083013567ffffffffffffffff811115611d2757611d266118f4565b5b611d3385828601611cc4565b9250506020611d4485828601611910565b9150509250929050565b600060208284031215611d6457611d636118ef565b5b6000611d728482850161193c565b91505092915050565b6000611d868261187c565b9050919050565b611d9681611d7b565b82525050565b6000602082019050611db16000830184611d8d565b92915050565b6000611dc28261187c565b9050919050565b611dd281611db7565b82525050565b6000602082019050611ded6000830184611dc9565b92915050565b600060208284031215611e0957611e086118ef565b5b600082013567ffffffffffffffff811115611e2757611e266118f4565b5b611e3384828501611cc4565b91505092915050565b6000602082019050611e5160008301846117ff565b92915050565b60008060408385031215611e6e57611e6d6118ef565b5b6000611e7c85828601611910565b9250506020611e8d8582860161193c565b9150509250929050565b6000611ea28261187c565b9050919050565b611eb281611e97565b82525050565b6000602082019050611ecd6000830184611ea9565b92915050565b600060208284031215611ee957611ee86118ef565b5b6000611ef784828501611910565b91505092915050565b600081519050611f0f81611925565b92915050565b600060208284031215611f2b57611f2a6118ef565b5b6000611f3984828501611f00565b91505092915050565b7f4e487b7100000000000000000000000000000000000000000000000000000000600052601160045260246000fd5b6000611f7c8261180e565b9150611f878361180e565b9250827fffffffffffffffffffffffffffffffffffffffffffffffffffffffffffffffff03821115611fbc57611fbb611f42565b5b828201905092915050565b611fd081611b2e565b8114611fdb57600080fd5b50565b600081519050611fed81611fc7565b92915050565b600060208284031215612009576120086118ef565b5b600061201784828501611fde565b91505092915050565b600082825260208201905092915050565b7f4f776e61626c653a2063616c6c6572206973206e6f7420746865206f776e6572600082015250565b6000612067602083612020565b915061207282612031565b602082019050919050565b600060208201905081810360008301526120968161205a565b9050919050565b600081905092915050565b50565b60006120b860008361209d565b91506120c3826120a8565b600082019050919050565b60006120d9826120ab565b9150819050919050565b600081519050919050565b600082825260208201905092915050565b60005b8381101561211d578082015181840152602081019050612102565b8381111561212c576000848401525b50505050565b600061213d826120e3565b61214781856120ee565b93506121578185602086016120ff565b61216081611bb6565b840191505092915050565b600061ffff82169050919050565b6121828161216b565b82525050565b600060a08201905061219d60008301886117ff565b6121aa60208301876117ff565b6121b76040830186611818565b81810360608301526121c98185612132565b90506121d86080830184612179565b9695505050505050565b60006040820190506121f760008301856117ff565b6122046020830184611b3a565b9392505050565b600080fd5b600080fd5b600081519050612224816118f9565b92915050565b600067ffffffffffffffff82111561224557612244611bc7565b5b602082029050602081019050919050565b60006122696122648461222a565b611c27565b9050808382526020820190506020840283018581111561228c5761228b61195b565b5b835b818110156122b557806122a18882611f00565b84526020840193505060208101905061228e565b5050509392505050565b600082601f8301126122d4576122d3611951565b5b81516122e4848260208601612256565b91505092915050565b6000604082840312156123035761230261220b565b5b61230d6040611c27565b9050600061231d84828501612215565b600083015250602082015167ffffffffffffffff81111561234157612340612210565b5b61234d848285016122bf565b60208301525092915050565b60006020828403121561236f5761236e6118ef565b5b600082015167ffffffffffffffff81111561238d5761238c6118f4565b5b612399848285016122ed565b91505092915050565b7f4e487b7100000000000000000000000000000000000000000000000000000000600052603260045260246000fd5b600081519050919050565b600082825260208201905092915050565b6000819050602082019050919050565b612406816117ed565b82525050565b600081519050919050565b600082825260208201905092915050565b6000819050602082019050919050565b6124418161180e565b82525050565b60006124538383612438565b60208301905092915050565b6000602082019050919050565b60006124778261240c565b6124818185612417565b935061248c83612428565b8060005b838110156124bd5781516124a48882612447565b97506124af8361245f565b925050600181019050612490565b5085935050505092915050565b60006040830160008301516124e260008601826123fd565b50602083015184820360208601526124fa828261246c565b9150508091505092915050565b600061251383836124ca565b905092915050565b6000602082019050919050565b6000612533826123d1565b61253d81856123dc565b93508360208202850161254f856123ed565b8060005b8581101561258b578484038952815161256c8582612507565b94506125778361251b565b925060208a01995050600181019050612553565b50829750879550505050505092915050565b6000819050919050565b60006125c26125bd6125b88461259d565b611850565b61180e565b9050919050565b6125d2816125a7565b82525050565b60006125e38261187c565b9050919050565b6125f3816125d8565b82525050565b600060808201905081810360008301526126138187612528565b905061262260208301866125c9565b61262f60408301856125ea565b61263c6060830184611818565b95945050505050565b7f4e487b7100000000000000000000000000000000000000000000000000000000600052602260045260246000fd5b6000600282049050600182168061268c57607f821691505b60208210810361269f5761269e612645565b5b50919050565b60008190508160005260206000209050919050565b600081546126c781612674565b6126d181866120ee565b945060018216600081146126ec57600181146126fe57612731565b60ff1983168652602086019350612731565b612707856126a5565b60005b838110156127295781548189015260018201915060208101905061270a565b808801955050505b50505092915050565b6000602082019050818103600083015261275481846126ba565b905092915050565b6000604082019050818103600083015261277681856126ba565b905061278560208301846117ff565b9392505050565b6000819050919050565b61279f8161278c565b81146127aa57600080fd5b50565b6000815190506127bc81612796565b92915050565b600067ffffffffffffffff8211156127dd576127dc611bc7565b5b602082029050602081019050919050565b60006127f9826117cd565b9050919050565b612809816127ee565b811461281457600080fd5b50565b60008151905061282681612800565b92915050565b6000604082840312156128425761284161220b565b5b61284c6040611c27565b9050600061285c84828501611f00565b600083015250602061287084828501612817565b60208301525092915050565b600061288f61288a846127c2565b611c27565b905080838252602082019050604084028301858111156128b2576128b161195b565b5b835b818110156128db57806128c7888261282c565b8452602084019350506040810190506128b4565b5050509392505050565b600082601f8301126128fa576128f9611951565b5b815161290a84826020860161287c565b91505092915050565b600061292661292184611c42565b611c27565b90508281526020810184848401111561294257612941611bb1565b5b61294d8482856120ff565b509392505050565b600082601f83011261296a57612969611951565b5b815161297a848260208601612913565b91505092915050565b6000610240828403121561299a5761299961220b565b5b6129a5610240611c27565b905060006129b584828501612215565b60008301525060206129c984828501611f00565b60208301525060406129dd84828501611f00565b60408301525060606129f184828501612215565b6060830152506080612a0584828501612215565b60808301525060a0612a1984828501612215565b60a08301525060c0612a2d84828501611f00565b60c08301525060e0612a4184828501611f00565b60e083015250610100612a5684828501611f00565b61010083015250610120612a6c84828501611f00565b61012083015250610140612a8284828501611f00565b61014083015250610160612a98848285016127ad565b61016083015250610180612aae84828501611f00565b610180830152506101a0612ac4848285016127ad565b6101a0830152506101c0612ada848285016127ad565b6101c0830152506101e0612af084828501611f00565b6101e08301525061020082015167ffffffffffffffff811115612b1657612b15612210565b5b612b22848285016128e5565b6102008301525061022082015167ffffffffffffffff811115612b4857612b47612210565b5b612b5484828501612955565b6102208301525092915050565b600060208284031215612b7757612b766118ef565b5b600082015167ffffffffffffffff811115612b9557612b946118f4565b5b612ba184828501612983565b91505092915050565b7f4e487b7100000000000000000000000000000000000000000000000000000000600052602160045260246000fd5b612be2816127ee565b82525050565b60188110612bf957612bf8612baa565b5b50565b6000819050612c0a82612be8565b919050565b6000612c1a82612bfc565b9050919050565b612c2a81612c0f565b82525050565b612c398161278c565b82525050565b600081519050919050565b600082825260208201905092915050565b6000819050602082019050919050565b604082016000820151612c816000850182612438565b506020820151612c946020850182612bd9565b50505050565b6000612ca68383612c6b565b60408301905092915050565b6000602082019050919050565b6000612cca82612c3f565b612cd48185612c4a565b9350612cdf83612c5b565b8060005b83811015612d10578151612cf78882612c9a565b9750612d0283612cb2565b925050600181019050612ce3565b5085935050505092915050565b600082825260208201905092915050565b6000612d39826120e3565b612d438185612d1d565b9350612d538185602086016120ff565b612d5c81611bb6565b840191505092915050565b600061024083016000830151612d8060008601826123fd565b506020830151612d936020860182612438565b506040830151612da66040860182612438565b506060830151612db96060860182612bd9565b506080830151612dcc60808601826123fd565b5060a0830151612ddf60a08601826123fd565b5060c0830151612df260c0860182612438565b5060e0830151612e0560e0860182612438565b50610100830151612e1a610100860182612c21565b50610120830151612e2f610120860182612438565b50610140830151612e44610140860182612438565b50610160830151612e59610160860182612c30565b50610180830151612e6e610180860182612438565b506101a0830151612e836101a0860182612c30565b506101c0830151612e986101c0860182612c30565b506101e0830151612ead6101e0860182612438565b50610200830151848203610200860152612ec78282612cbf565b915050610220830151848203610220860152612ee38282612d2e565b9150508091505092915050565b60006020820190508181036000830152612f0a8184612d67565b905092915050565b612f1b816127ee565b82525050565b60006080820190508181036000830152612f3b8187612528565b9050612f4a6020830186612f12565b612f5760408301856117ff565b612f646060830184611818565b95945050505050565b6000606082019050612f8260008301866117ff565b612f8f60208301856117ff565b612f9c6040830184611818565b949350505050565b600060a08284031215612fba57612fb961220b565b5b612fc460a0611c27565b90506000612fd484828501611910565b6000830152506020612fe88482850161193c565b6020830152506040612ffc84828501611910565b604083015250606082013567ffffffffffffffff8111156130205761301f612210565b5b61302c84828501611cc4565b606083015250608082013567ffffffffffffffff8111156130505761304f612210565b5b61305c84828501611cc4565b60808301525092915050565b60006020828403121561307e5761307d6118ef565b5b600082013567ffffffffffffffff81111561309c5761309b6118f4565b5b6130a884828501612fa4565b91505092915050565b7f4f776e61626c653a206e6577206f776e657220697320746865207a65726f206160008201527f6464726573730000000000000000000000000000000000000000000000000000602082015250565b600061310d602683612020565b9150613118826130b1565b604082019050919050565b6000602082019050818103600083015261313c81613100565b905091905056fea26469706673582212206cb375a67662265218ccb763a1c9d1672e939347d113868465e69d654c4dc44764736f6c634300080d0033",
  "linkReferences": {},
  "deployedLinkReferences": {}
}